:020000040000FA
:06000000BCEF19F0120034
:0A0006000200CC330000C605000024
:100010000F000000CA330000DF05000002000000EE
:10002000D9CFE6FFE1CFD9FFE652A09A6A6A686AA3
:10003000706A020EE66EE66AE66A710EE66E0F0EF2
:10004000E66EC0EC17F0146E050EE15E1450160E4D
:100050006F6E9F0E6B6E7B0E696EDF6ADF50146EE3
:10006000156A0C0E145C000E155810E2DF50040DDA
:10007000F3CFE9FFF4CFEAFF000EE926040EEA22EF
:10008000EE6AEE6AEE6AEE6ADF2AE8D76D8C6E6A77
:100090006D986D9C68A607D068960501A96BAE6B3C
:1000A000AF6BB06BF7D70501010EC26FC36FC46BA6
:1000B000C56BB66BDF6A030EDF5C26E2EA6ADF34EB
:1000C000FE0BEA36E96E9F0EE926050EEA22EE6A7D
:1000D000ED6AEA6ADF34FE0BEA36E96E990EE9262C
:1000E000050EEA22EE6AED6ADF50EA6ABA0FE96E9F
:1000F000050EEA22EF6ADF50EA6ABD0FE96E050ECF
:10010000EA22EF6ADF2AD7D70501080E9F6F040E97
:10011000A06F160E706E0401300E026F040E036F96
:10012000080E016F840E006F0501926B916BE55212
:10013000E552E7CFD9FF1200D9CFE6FFE1CFD9FFD3
:10014000E6520501915116E106D06D6A696A050112
:10015000916BA19ABDD06D6A696A160E6F6E9F0E83
:100160006B6E7B0E696E6DB602D06D86FCD7050195
:10017000010E916F910508E16DBA06D0686A696A4F
:1001800069806988020E916F6850040B06E069501F
:10019000040B03E06894A9EC06F06DA202D0A19ACA
:1001A00097D06850010B08E06950010B05E038DF7B
:1001B0000501040E916F68906850100B06E06950BD
:1001C000100B03E094EC06F0689868AC19D069ACA9
:1001D0000FD0010EE66EE66A000EE66EE66A730E5A
:1001E000E66EE66A6EEC13F0146E060EE15E1450D5
:1001F000689C0501C05101E0C007C05101E1EFD981
:100200006850200B05E06950200B02E07BEC06F003
:100210006850020B13E06950020B10E0010EE66E0D
:10022000E66A000EE66EE66AE6687F0EE66E6EEC43
:1002300013F0146E060EE15E14506A6A040E050196
:10024000E76E9119E8AE02D0E73402D0E750915D35
:1002500002E2A19A3DD069A63AD0DF6A040EDF5CC3
:1002600036E268A631D06CCFB7F50501B751780BEF
:10027000E842E842E842B86F6896B7B508D0B8518E
:10028000EA6ABD0FE96E050EEA22EF7007D0B85199
:10029000EA6ABA0FE96E050EEA22EF70B85103E17F
:1002A000C0EC06F010D0000EE66EE66AB70EE66E01
:1002B000050EE66E720EE66EE66A6EEC13F0146ED4
:1002C000060EE15E145001D002D0DF2AC7D7A19AF2
:1002D000E552E552E7CFD9FF1200D9CFE6FFE1CFD3
:1002E000D9FF020EE126FD0EDBA407D0E66AFE0E62
:1002F000DBCFE6FF05DAE552E552FD0EDBA208D0C2
:10030000010EE66EFE0EDBCFE6FFFAD9E552E552AE
:10031000FE0EDB50156A700F146E0F0E152214C0FE
:10032000DEFF15C0DDFFDECFE9FFDDCFEAFFFD0E0A
:10033000DBCFEFFF020EE15C02E2E16AE552E16E23
:10034000E552E7CFD9FF1200D9CFE6FFE1CFD9FFC1
:10035000020EE126FD0EDB500FE0FE0EEA6ADB34F2
:10036000FE0BEA36E96E9F0EE926050EEA22EECF75
:10037000DEFFEDCFDDFF0ED0FE0EEA6ADB34FE0BB2
:10038000EA36E96E990EE926050EEA22EECFDEFF87
:10039000EDCFDDFFD9CFE9FFDACFEAFFEE50ED1068
:1003A00003E1F36AF46A49D0DECFE9FFDDCFEAFF6B
:1003B000020EE926000EEA22FB0EDBCFEEFFFC0E5A
:1003C000DBCFEDFFDECFE9FFDDCFEAFFEE52FA0E25
:1003D000DBCFEFFF400E146EDECFE9FFDDCFEAFF8B
:1003E0001450EF16880E146EDECFE9FFDDCFEAFF62
:1003F0001450EF12FD0EDB500CE0FE0EEA6ADB3407
:10040000FE0BEA36E96E9F0EE926050EEA22EF742E
:100410000BD0FE0EEA6ADB34FE0BEA36E96E990E6B
:10042000E926050EEA22EF74DECF14F0DDCF15F0D9
:1004300014C0F3FF15C0F4FF00D0020EE15C02E22D
:10044000E16AE552E16EE552E7CFD9FF1200D9CF5C
:10045000E6FFE1CFD9FF020EE126FE0EDB5020E1E0
:1004600097C5E9FF98C5EAFFEE52080EEF6E97C5F3
:10047000E9FF98C5EAFF020EE926000EEA22300ED7
:10048000EE6E040EED6E97C5E9FF98C5EAFF8C0E7F
:10049000EF6E9FC5E9FFA0C5EAFF840EEF6E3DD069
:1004A000FD0EDB50E824166EFE0EDB50040DF350FB
:1004B0001624040DF3CF14F0F4CF15F0000E14261B
:1004C000040E152214C0DEFF15C0DDFF840E146E6D
:1004D000DECFE9FFDDCFEAFF1450EF12FD0EDB5057
:1004E000E824166EFE0EDB50040DF3501624010FA7
:1004F000040DF3CF14F0F4CF15F0000E1426040E03
:10050000152214C0DEFF15C0DDFF840E146EDECF91
:10051000E9FFDDCFEAFF1450EF12020EE15C02E2C8
:10052000E16AE552E16EE552E7CFD9FF1200D9CF7B
:10053000E6FFE1CFD9FF6DA84ED0FE0EEA6ADB34AC
:10054000FE0BEA36E96E9F0EE926050EEA22EE5012
:10055000EFCFEAFFE96E400EEE16EE6AEE6AEE6A43
:10056000FE0EEA6ADB34FE0BEA36E96E9F0EE926E0
:10057000050EEA22EE50EFCFEAFFE96EEE7CFE0EAA
:10058000EA6ADB34FE0BEA36E96E9F0EE926050EB9
:10059000EA22EF74400E146EFE0EEA6ADB34FE0BA4
:1005A000EA36E96E9F0EE926050EEA22EE50EFCFFD
:1005B000EAFFE96E1450EF16FE0EEA6ADB34FE0B1A
:1005C000EA36E96E9F0EE926050EEA22EE50EFCFDD
:1005D000EAFFE96EEF7CE552E7CFD9FF1200050193
:1005E000C2514DE1010EC26FC35149E1010EC36F0B
:1005F000020EA65D0DE19FC5E9FFA0C5EAFFEE5220
:10060000EF6A9FC5E9FFA0C5EAFFC80EEF6E37D0BD
:10061000A60535E1B96B95C5E9FF96C5EAFFEE522F
:10062000080EEF6E95C5E9FF96C5EAFF020EE926B2
:10063000000EEA22300EEE6E040EED6E95C5E9FF57
:1006400096C5EAFF840EEF6E010EB96F97C5E9FFFC
:1006500098C5EAFFEE52080EEF6E97C5E9FF98C500
:10066000EAFF020EE926000EEA22300EEE6E040EBC
:10067000ED6E97C5E9FF98C5EAFF800EEF6E120098
:100680000501C46BC56B020EA65D1AE197C5E9FFB3
:1006900098C5EAFFEE52080EEF6E97C5E9FF98C5C0
:1006A000EAFF020EE926000EEA22380EEE6E040E74
:1006B000ED6E97C5E9FF98C5EAFFC80EEF6E1FD033
:1006C000AA510401365D0501AB510401375904E21A
:1006D00036C4AAF537C4ABF5D1D89FC5E9FFA0C58C
:1006E000EAFF020EE926000EEA22380EEE6E040E34
:1006F000ED6E9FC5E9FFA0C5EAFFC80EEF6E1200C0
:10070000D9CFE6FFE1CFD9FF020EE126000EDE6E63
:10071000040EDD6EFD0EDB50E824166EFE0EDB507F
:10072000040DF3501624040DF3CF14F0F4CF15F09C
:10073000D9CFE9FFDACFEAFF1450EE261550ED22AB
:10074000DECFE9FFDDCFEAFFEF9EFD0EDB500FE1CC
:10075000FE0EEA6ADB34FE0BEA36E96E990EE926F4
:10076000050EEA22DECFEEFFDDCFEDFF0ED0FE0E4E
:10077000EA6ADB34FE0BEA36E96E9F0EE926050EC7
:10078000EA22DECFEEFFDDCFEDFFDECFE9FFDDCFEA
:10079000EAFFEF9CDECFE9FFDDCFEAFF040EE9269A
:1007A000000EEA22EF8C020EE15C02E2E16AE55201
:1007B000E16EE552E7CFD9FF12006D980501A9BFA0
:1007C0002BD0AEAF09D0020EA66FC55101E158DFA4
:1007D0000501C36BC26B1FD097C5E9FF98C5EAFF3F
:1007E000EE52080EEF6E97C5E9FF98C5EAFF020EBC
:1007F000E926000EEA22300EEE6E040EED6E97C56D
:10080000E9FF98C5EAFF8C0EEF6E9FC5E9FFA0C512
:10081000EAFF840EEF6E31D0040130AF0DD0050138
:10082000010EA66FC45101E12BDF0501C36BC26B42
:10083000C15101E1D4DE21D00501020EA66F97C59A
:10084000E9FF98C5EAFFEE52080EEF6E97C5E9FF83
:1008500098C5EAFF020EE926000EEA22300EEE6E7F
:10086000040EED6E97C5E9FF98C5EAFF840EEF6EA2
:10087000C36BC26BC15101E1B2DE1200D9CFE6FFFA
:10088000E1CFD9FFE652080EDF6E0501AA5D000E2A
:10089000AB590BE2AAC5DFFFA55103E1010EA56F1D
:1008A00004D0A50502E1020EA56FDF50146E156A93
:1008B0001450AA5DAA6F1550AB59AB6F9FC5E9FFE5
:1008C000A0C5EAFFEE52DFCFEFFF380EB36F040E84
:1008D000B46FA9B119D0DF5016E0A7C5F6FFA8C5BF
:1008E000F7FFA72B000EA8230800F550E66EB3C54E
:1008F000E9FFB4C5EAFFB32B000EB423E552E7507D
:10090000EF6EDF06E8D717D0DF5015E0A7C5E9FF87
:10091000A8C5EAFFA72B000EA823EF50E66EB3C5CB
:10092000E9FFB4C5EAFFB32B000EB423E552E7504C
:10093000EF6EDF06E9D7E552E552E7CFD9FF1200A7
:10094000D9CFE6FFE1CFD9FF020EE12695C5E9FF39
:1009500096C5EAFFEE52EFCFDFFFDFCF14F0145061
:100960000501AF5D000EB05902E2AFC5DFFFDF50F9
:10097000146E156A1450AF5DAF6F1550B059B06F5B
:10098000010EDB6ADF50F36E010EDBCFF4FFF35094
:10099000F45C16E2010EDB50EA6A380FE96E040ED1
:1009A000EA22EF50E66EACC5E9FFADC5EAFFAC2B1D
:1009B000000EAD23E552E750EF6E010EDB2AE2D7C1
:1009C000000ED880AF55000EB05528E297C5E9FF5C
:1009D00098C5EAFFEE52080EEF6E97C5E9FF98C57D
:1009E000EAFF020EE926000EEA22380EEE6E040E31
:1009F000ED6E95C5E9FF96C5EAFFEF50400B07E1A4
:100A000097C5E9FF98C5EAFFC80EEF6E06D097C5F7
:100A1000E9FF98C5EAFF880EEF6E28D097C5E9FF79
:100A200098C5EAFFEE52080EEF6E97C5E9FF98C52C
:100A3000EAFF020EE926000EEA22300EEE6E040EE8
:100A4000ED6E97C5E9FF98C5EAFF840EEF6EB151D0
:100A5000B21107E005D0B2C5FAFF0501B151F96E38
:100A6000FADF0501AE9FC15101E1B9DD020EE15C83
:100A700002E2E16AE552E16EE552E7CFD9FF1200EA
:100A8000D9CFE6FFE1CFD9FFE6520501A98F020ECB
:100A9000E66EE66AE66A710EE66E0F0EE66EC0EC72
:100AA00017F0146E050EE15E1450300EE66EE66A25
:100AB000E66A000EE66E040EE66EC0EC17F0146EE9
:100AC000050EE15E14506D8CDF6A030EDF5C10E2F0
:100AD000DF50EA6ABA0FE96E050EEA22EF6ADF50CC
:100AE000EA6ABD0FE96E050EEA22EF6ADF2AEDD74A
:100AF000020EE66EE66AE66A930EE66E050EE66E96
:100B0000C0EC17F0146E050EE15E14506D9C0501EB
:100B1000080E9F6F040EA06F000E956F040E966F67
:100B200095C597F596C598F532C492F5925103E1B3
:100B3000100E916F13D0010EE66EE66A920EE66E0D
:100B4000050EE66E010EE66EE66A6EEC13F0146EAC
:100B5000060EE15E14500501200E916FE552E5523C
:100B6000E7CFD9FF1200800E0401305D5BE1050183
:100B7000C00EA96F04013351030A34E0010A0EE0EC
:100B8000030A03E00501A96B4DD005016C0EA76FA8
:100B90002D0EA86F120EAA6FAB6B44D03251F66EB9
:100BA000F76AD890F636F7362D0EF6262E0EF72277
:100BB0000900F5CFA7F50A00F5CFA8F5020E05014B
:100BC000F76AA725F66EA851F7220800F5CFAAF517
:100BD000030EF76AA725F66EA851F7220800F5CF95
:100BE000ABF520D0030E325D1AE23251F66EF76A91
:100BF000D890F636F7362F0EF6262E0EF72209007D
:100C0000F5CFA7F50A00F5CFA8F5A7C5F6FFA8C54B
:100C1000F7FF0800F5500501AA6FAB6B02D0050184
:100C2000A96B00D01200D9CFE6FFE1CFD9FF020EA9
:100C3000E1260401386B396B30511F0B020A12E0B8
:100C4000030A0DE0010A01E042D00501A98F040169
:100C500038810501B50502E10401388338D005016A
:100C6000A98F35D00501A98F040134BF10D03451AC
:100C70000F0BE96EEA6AD890E936EA36990EE92652
:100C8000050EEA22EECFDEFFEDCFDDFF0FD03451AF
:100C90000F0BE96EEA6AD890E936EA369F0EE9262C
:100CA000050EEA22EECFDEFFEDCFDDFFDECFE9FF5E
:100CB000DDCFEAFFEF50800B09E0DECFE9FFDDCFAB
:100CC000EAFFEF50040B02E0010E386F00D005017F
:100CD000A9AF07D0380EA76F040EA86FA981020E26
:100CE000AA6F020EE15C02E2E16AE552E16EE552B2
:100CF000E7CFD9FF120070A015D095C5E9FF96C5C2
:100D0000EAFFEF5080080DE19FC5E9FFA0C5EAFFAB
:100D1000EF50840806E195C5E9FF96C5EAFF8C0E01
:100D2000EF6E7090689A1200698468986D82050170
:100D3000010EB66F000EE66EE66AE66EE66A750EA6
:100D4000E66EE66A6EEC13F0146E060EE15E145069
:100D500012000501B66B000EE66EE66AE66EE66A04
:100D6000740EE66EE66A6EEC13F0146E060EE15E2B
:100D700014506D92699468A402D06894FCD7120054
:100D8000D9CFE6FFE1CFD9FFE65205012D0EC06FA6
:100D9000FD0EB71553E17E0EB715E8407F0B040D2D
:100DA000F3CF95F5F4CF96F5000E9527040E962314
:100DB00095C597F596C598F5977595C5E9FF96C5BC
:100DC000EAFFEF503C0BE842E8420D0835E1DF6AEC
:100DD000080EDF5C23E295C5E9FF96C5EAFF020E27
:100DE000E926000EEA22EE50EFCFEAFFE96EEF505F
:100DF000E66EDF50EA6A300FE96E040EEA22E55231
:100E0000E750EF6E95C5E9FF96C5EAFF020EE926A9
:100E1000000EEA22EE2AEF22DF2ADAD795C5E9FF93
:100E200096C5EAFF020EE926000EEA22300EEE6EAB
:100E3000040EED6E0DD801D03AD805D0FD0EB715D1
:100E4000040801E159D8E552E552E7CFD9FF120075
:100E50000501A56BC16BC46BC56BB96BA66B9FC558
:100E6000E9FFA0C5EAFFEF9E9F759FC5E9FFA0C5FA
:100E7000EAFFEF9E9F7597C5E9FF98C5EAFFEF9ED1
:100E8000A96BAA6BAB6BAE6BAF6BB06B8FD8000E60
:100E9000E66EE66AE66EE66A030EE66EE66A6EECFB
:100EA00013F0146E060EE15E1450DDEF03F0020E37
:100EB0000501A65D02E144DD1ED0A66BB9511AE121
:100EC00097C5E9FF98C5EAFFEE52080EEF6E97C589
:100ED000E9FF98C5EAFF020EE926000EEA22300E6D
:100EE000EE6E040EED6E97C5E9FF98C5EAFF8C0E15
:100EF000EF6E01D0B96B1200D9CFE6FFE1CFD9FF79
:100F0000E6529FC5E9FFA0C5EAFFEF50400B01E0A4
:100F1000010EDF6E05019F75080E915D09E132C477
:100F20006EFF6E5003E0100E916F02D0040E916FB1
:100F3000A60528E19FC5E9FFA0C5EAFF020EE92644
:100F4000000EEA22380EEE6E040EED6E97DC020EF5
:100F50000501A55D07E19FC5E9FFA0C5EAFF840E75
:100F6000EF6E0FD0DF5007E19FC5E9FFA0C5EAFF94
:100F7000C80EEF6E06D09FC5E9FFA0C5EAFF880E38
:100F8000EF6E0FD0AEAF0CD0B151B21107E005D06B
:100F9000B2C5FAFF0501B151F96EFADF0501AE9F46
:100FA000A66BE552E552E7CFD9FF1200040130519C
:100FB000600BE842E842E842E842E842000901E00A
:100FC00058D031510C0A54E00B0A43E00C0A35E0CA
:100FD000010A26E00B0A22E0020A20E0030A1CE0D4
:100FE000080A10E0010A0CE00F0A08E0030A01E019
:100FF0003FD00501A98F080E916F3BD0B4DD39D0E9
:101000003FDD37D00501920EA76F050EA86FA981AD
:10101000010EAA6FA98F2DD006DE2BD02BD829D098
:1010200034510501A76FA86B930EA727050EA823BF
:10103000A981010EAA6FA98F1CD00501A98F0401F7
:101040003451EA6A930FE96E050EEA2232C4EFFFCB
:1010500010D0000EE66EE66AE66EE66A020EE66EF6
:10106000E66A6EEC13F0146E060EE15E145001D0C9
:1010700000D01200D9CFE6FFE1CFD9FF050EE1265F
:101080000401320510E130511F0B00090CE105018C
:10109000A98F030E0401315D04E10501010EB56F56
:1010A00002D00501B56B0401325101E020D130516D
:1010B0001F0B020801E01BD134510F0B000901E1A5
:1010C00016D134510F0B020801E211D1200E050197
:1010D000915D01E00CD1A98F040134BF1AD03451C5
:1010E0000F0BE96EEA6AD890E936EA36990EE926DE
:1010F000050EEA22EECFDEFFEDCFDDFF34510F0B00
:10110000EA6ABD0FE96E050EEA22020EEFCFDBFFA1
:1011100019D034510F0BE96EEA6AD890E936EA36F5
:101120009F0EE926050EEA22EECFDEFFEDCFDDFFB2
:1011300034510F0BEA6ABA0FE96E050EEA22020E6D
:10114000EFCFDBFFD950020FE96EDACFEAFFEF50A5
:10115000010B03E1000EDF9401D0DF8434BF10D017
:1011600034510F0BE96EEA6AD890E936EA36990EE7
:10117000E926050EEA22DECFEEFFDDCFEDFF0FD030
:1011800034510F0BE96EEA6AD890E936EA369F0EC1
:10119000E926050EEA22DECFEEFFDDCFEDFF030EDE
:1011A000315D23E1DECFE9FFDDCFEAFFEF50800BB9
:1011B00013E034BF09D034510F0BEA6ABD0FE96E5A
:1011C000050EEA22EF8208D034510F0BEA6ABA0FFB
:1011D000E96E050EEA22EF82840E146EDECFE9FF7F
:1011E000DDCFEAFF1450EF1282D0DF74DECFE9FFCB
:1011F000DDCFEAFFEF50800B1BE0DECFE9FFDDCF54
:10120000EAFFEF9EDECFE9FFDDCFEAFFEF8C020EB3
:10121000E66EE66ADECFE6FFDDCFE6FF050EE66EA0
:10122000E66A6EEC13F0146E060EE15E145005D003
:10123000DECFE9FFDDCFEAFFEF8CDF74D950020F7C
:10124000E96EDACFEAFFEF50020B07E1DECFE9FFEC
:10125000DDCFEAFFEF50800B2DE0040134BF09D051
:1012600034510F0BEA6ABD0FE96E050EEA22EF92C8
:1012700008D034510F0BEA6ABA0FE96E050EEA2264
:10128000EF923B0E146EDECFE9FFDDCFEAFF145084
:10129000EF16020EE66EE66ADECFE6FFDDCFE6FF72
:1012A000050EE66EE66A6EEC13F0146E060EE15E55
:1012B000145008D03B0E146EDECFE9FFDDCFEAFFFD
:1012C0001450EF16040134510F0B156A700F146E91
:1012D0000F0E1522030E14C0DBFF040E15C0DBFF3A
:1012E000030EDBCFE9FF040EDBCFEAFFEF90050E24
:1012F000E15C02E2E16AE552E16EE552E7CFD9FF37
:021300001200D9
:0E130200BDEC0EF0FB0EDBCFF3FFDB06F3506D
:1013100000090AE00BEC0FF0FA0E76EC0FF0F3E1A7
:10132000151CF1E1010E01D0000EECEF0EF0BDEC4A
:101330000EF03B0EE12402E3E168E652E16E010E9D
:10134000DB6A020EDB6AF90EDBCFF6FFFA0EDBCFAB
:10135000F7FFFB0EDBCFF8FF0800F550DF6EDF5024
:1013600002E110EF0EF0250EDF5C02E003EF0EF05D
:10137000030EDB6A040EDB6A050EDB6A060EDB6A0F
:10138000070EDB6A25EC0EF02D0EDF5C0CE02B0E59
:10139000DF5C09E0200EDF5C06E0230EDF5C03E08B
:1013A000300EDF5C1AE1DF50300A14E0130A0FE060
:1013B000030A0AE00B0A05E0060AE4E1030EDB80FB
:1013C000E1D7030EDB82DED7030EDB84DBD7030E0F
:1013D000DB86D8D7030EDB88D5D72A0EDF5C1BE16E
:1013E00021EC0EF06FEC0EF010E0030EDB800668CF
:1013F0000768130EDBCF0BF0140EDBCF0CF033ECD1
:1014000019F0040E04C0DBFF03D0130E58EC0EF0ED
:1014100025EC0EF00BD0090EDB6AC6EC0EF003E0F3
:101420003AEC0FF0FAD7090E58EC0EF0030EDBB0D1
:10143000DB982E0EDF5C1BE125EC0EF02A0EDF5C44
:101440000BE121EC0EF06FEC0EF003E1130EAAECB1
:101450000EF025EC0EF00BD0090EDB6AC6EC0EF098
:1014600003E03AEC0FF0FAD7090EAAEC0EF0680E82
:10147000DF5C07E125EC0EF0680EDF5C1DE1030E7A
:1014800018D0740EDF5C17E07A0EDF5C14E0480EB3
:10149000DF5C06E0540EDF5C03E05A0EDF5C02E125
:1014A000020E07D06C0EDF5C03E06A0EDF5C04E125
:1014B000010EFDEC0EF0C9DBDF506E0A01E17FD3B7
:1014C0001E0A01E192D1200A01E18FD13F0A01E118
:1014D00049D11A0A01E146D10D0A01E143D1200A9E
:1014E00001E140D13A0A01E13DD1200A01E13AD1BE
:1014F000260A01E135D10D0A01E132D11A0A01E1D2
:10150000D9D0200A4AE0300A1FE0460A0EE0250A38
:1015100001E083D3D950F90FE96EFF0EDA20EA6EAD
:10152000010EEE5E000EEE5AEE5A0BEC0FF0250E99
:10153000E66E95DB03E1151C01E169D307EC0FF0C2
:1015400001E26BD3DB2A69D3080EDB6A040EDB50A1
:10155000010806E2040EDB04CFEC0EF0DB508BDB5F
:10156000080EDB5009E0030EDB50010B05E172DBD6
:1015700001E04DD3080EDB6A64DBEFCFDFFF7FECC9
:101580000FF003E1151C01E142D307EC0FF001E37A
:10159000DB2A60DB01E141D33AD3070EDB500208BE
:1015A0000FE14BEC0FF0030E12EC0FF00E0EEECF2E
:1015B000DBFF0F0EEECFDBFF100EEECFDBFF20D0F8
:1015C000F70EDBCF17F0F80EDBCF18F0020E175E28
:1015D000000E185AF70E17C0DBFFF80E18C0DBFF1D
:1015E00017C0E9FF18C0EAFF02EC0FF0166A0E0EF2
:1015F00014C0DBFF0F0E15C0DBFF100E16C0DBFFA3
:101600000E0EDBCFE6FF0F0EDBCFE6FF100EDBCFBB
:10161000E6FFE8EC17F0E552E552E552130E05C07F
:10162000DBFF140E06C0DBFF060EDB5005E0130ED9
:1016300046EC0FF001E26ADB6AEC0FF002E2130EF7
:1016400037DB2DEC0FF006E0040E46EC0FF002E263
:10165000050E2EDB030EDBB005D0FCDA01E0D7D29D
:10166000080EDB6A090EDB6A0E0EDBCFF6FF0F0EEB
:10167000DBCFF7FF100EDBCFF8FF0800F550DF6E71
:10168000DF5014E070EC0FF011E27FEC0FF003E19B
:10169000151C01E1BCD2BBDB01E3DB2A090EDB2A0E
:1016A000D9500E0FE96E000ECBDBE7D7D3DA01E19C
:1016B000B4D2ADD2C6DA110EEECFDBFF120EEDCFF3
:1016C000DBFF110EDBCFE6FF120EDBCFE6FFDAEC1D
:1016D00017F0E552E552130EF3CFDBFF140EF4CFF3
:1016E000DBFF060EDB5004E0130ED0DB01E20EDB65
:1016F0006AEC0FF002E2130EDBDAAFDB05E0040E5A
:10170000C5DB02E2050ED4DA030EDBB005D0A2DAA7
:1017100001E07DD2080EDB6A090EDB6A110EDBCF19
:10172000E9FF120EDBCFEAFFEFCFDFFFDF5014E05F
:10173000D7DB12E2E4DB03E1151C01E168D267DBD1
:1017400001E3DB2A090EDB2A110EDB2ADBCFE9FFDE
:10175000120EE8E3DB2AE6D77DDA01E15ED257D24A
:10176000030EDB8E070EDB0410E195DB040E5ADB63
:101770000A0EEECFDBFF0B0EEECFDBFF0C0EEECF33
:10178000DBFF0D0EEECFDBFF6CD0070EDB50030846
:101790002CE1030EDBAE0DD0B2DA020E76DAEFCF1B
:1017A00014F0156A166A176A14AE39D015681668EF
:1017B00035D0F70EDBCF15F0F80EDBCF16F0020EAA
:1017C000155E000E165AF70E15C0DBFFF80E16C098
:1017D000DBFF15C0E9FF16C0EAFFEFCF14F00A0ED9
:1017E00014C0DBFF0B0EDB6A38D0070EDB5002089B
:1017F00009E1030EDBAE04D059DB16AE10D00ED0DB
:1018000055DB0DD0030EDBAE12D079DA020E3DDAD5
:10181000F9DA166A176A15AE02D016681768E2DAA6
:101820000C0E16C0DBFF0D0E17C0DBFF1AD0F70E33
:10183000DBCF16F0F80EDBCF17F0020E165E000EAF
:10184000175AF70E16C0DBFFF80E17C0DBFF16C0E5
:10185000E9FF17C0EAFFD6DAC5DA0C0EDB6A0D0E17
:10186000DB6A060EDB5005E1010EF36E050EF3CFC9
:10187000DBFF150EDB6A160EDB6AD950370F146ECC
:10188000000EDA20156E390E14C0DBFF3A0E15C0BB
:10189000DBFF380EDB6A080EDB6A0A0EAEDADF50B9
:1018A000780A12E0200A10E0280A0CE0200A0AE078
:1018B0003F0A06E00D0A02E0200A08E1020E05D008
:1018C000080E03D0080EDF26100E97DA030EDBBEDB
:1018D00002D0DB92DB94DB50800B24E08ADAD890D4
:1018E000030EEB50000A08E6000EEE5C000EEE5808
:1018F000000EEE58000EEE5815E213DA09680A6879
:101900000B680C689BEC18F00A0E00C0DBFF0B0E96
:1019100001C0DBFF0C0E02C0DBFF0D0E03C0DBFFBE
:101920002D0E08D0030EDBA202D02B0E03D0DBA4B9
:1019300008D0200EF36E170EF3CFDBFF150EDB2A57
:1019400002D0170EDB6A050EDB5003E1B7D901E1C7
:1019500089D0B00E146E330E156E000E166E070E83
:10196000DBCF17F0186A196A1A6A17C009F018C095
:101970000AF019C00BF01AC00CF0D3D960EC19F0C2
:1019800014500024F36E15500120F46E16500220FE
:10199000F86EF4CFF7FFF3CFF6FF0800090EF5CF8E
:1019A000DBFF580EDF5C0FE1610EF36E090E7BD991
:1019B0000AE3200E146E090EDBCFE7FF1450E75E3A
:1019C000090EE7CFDBFF070EDBCF14F0156A166AAE
:1019D000176A0FDA14C009F015C00AF016C00BF030
:1019E00017C00CF0EECF04F0EECF05F0EECF06F00E
:1019F000EFCF07F060EC19F007C0EDFF06C0EDFF78
:101A000005C0EDFF04C0EFFF390EDBCFE9FFDB06B9
:101A10003A0EDBCFEAFF01E2DB06090EDBCFEFFF78
:101A2000150EDB2A4BD995E1030EDBA61DD06F0EF8
:101A3000DF5C06E1C1D918E3150EDB285BDA14D0B0
:101A4000780EDF5C09E0580EDF5C06E0620EDF5CBA
:101A500003E0420EDF5C08E1020EF36E160EF3CFD8
:101A6000DBFF02D0150EDB6A030EDB50100B0EE01D
:101A7000040EDBCF14F0050EDB50D880145406E2C0
:101A8000060EDB5003E1040EDB5034DA95D90AE28E
:101A9000050EDBCFE7FF150EDB50E75E050EE7CF47
:101AA000DBFF02D0050EDB6A040EDBCF14F0160E4E
:101AB00045D9D880145414E2160EDBCFE6FF150E7C
:101AC000DBCFE6FF040EDBCFE6FF050EDB50E55271
:101AD000E75CE552D880E754E552D880E7545FD9F7
:101AE000030EDB50010B0BE1080EDB5008E0B2D80F
:101AF00001E08DD0080EDB50BED8080EDB6A170E51
:101B0000DB5007E088D9170EF1D903E1151C01E17C
:101B10007ED0160EDB5016E07ED9300EE66E9FD8D2
:101B200002E1151C74E077D9DFCFE6FF59EC18F01D
:101B3000E552E552E552F4CF15F00001F31C02E145
:101B4000151C65E0050EDBCF14F0160EDB50D880B7
:101B5000145409E2050EDBCFE7FF160EDB50E75EFB
:101B6000050EE7CFDBFF300EE66E050ECBD94FE159
:101B7000390EDB2ADBCFE9FF3A0E01E3DB2ADBCFAC
:101B8000EAFF090EEFCFDBFFDB500EE044D9090E70
:101B9000ADD902E1151C3BE0390EDB2ADBCFE9FFB2
:101BA0003A0EEDE3DB2AEBD755D831E1160EDBCF49
:101BB000E6FF080EC3D8E552E7245DD82ED0070E05
:101BC000DB50030A1CE0010A14E0030A07E07BD99A
:101BD000DBCFEEFF020EDBCFEDFF1FD0F5D8196A89
:101BE00017AE02D0186819682CD8BCD819C0EEFFFF
:101BF00014D0EAD817BE186824D8B4D80ED063D948
:101C0000DBCFEFFF0AD07BD905E1151C03E1F368B8
:101C1000F46810D0FCD801E3DB2A79D9ACEF09F0E5
:101C2000010EDBCF14F0020EDBCF15F014C0F3FF72
:101C300015C0F4FF3B0EE15C02E2E16AE552E16EA1
:101C4000CBD029D9020E12EF0FF061D90800F55060
:101C5000DF6E1200200EE66E080E82EF0FF059ECD8
:101C600018F0E552E552E552F3CF14F0F4CF15F039
:101C70000001F31C1200146E156AD950010F4DD9E2
:101C80001450EE261550ED221200185E000E195A5F
:101C9000F70E18C0DBFFF80E19C0DBFF18C0E9FF14
:101CA00019C0EAFF1200DBCFF4FFF350F45C12001E
:101CB000DB50E76E040EE7CFDBFF12000A0EDBCF2E
:101CC00014F00B0EDBCF15F00C0EDBCF16F00D0E63
:101CD000DBCF17F014501510161017101200130E4A
:101CE000EECFDBFF140EEDCFDBFF130EDBCF14F0D6
:101CF000140EDBCF15F00001800E15141200F70E44
:101D0000DBCF18F0F80EDBCF19F01200050EDB5018
:101D1000E66ED950130F01D9E552E750EE6EED6A29
:101D200012000A0EDBCF04F00B0EDBCF05F00C0E19
:101D3000DBCF06F00D0EDBCF07F01200DBCFE6FFA6
:101D4000150EDBCFE6FF050EDB50E552E724E5522A
:101D5000E7241200DB50CED8010EF36E060EF3CF4F
:101D6000DBFF1200EE50EFCFEAFFE96E16C0EEFF88
:101D700017C0EEFF18C0EEFF1200D9CFE6FFDACF92
:101D8000E6FFE1CFD9FFE2CFDAFF1200DFCFE6FFB7
:101D9000E66A9AEC19F0E552E552F3501200E76E4C
:101DA000080EE7CFDBFF1200EECF14F0EECF15F0F8
:101DB000EFCF16F0176A1200050EDBCF14F0150EE8
:101DC000DB50D88014541200010EDBCF16F0020E47
:101DD000DBCF17F0186A1200E552E5CFDAFFE7CF44
:101DE000D9FF12000A0E14C0DBFF0B0E15C0DBFF7B
:101DF0001200D9500A0F8DEF0FF0F36E070EF3CFDC
:101E0000DBFF1200EECF14F0EFCF15F01200010E41
:101E1000DB2A020E1200FC0EDBCFE6FFFD0EDBCF4D
:101E2000E6FF1200145E000E155AF70E14C0DBFF19
:101E3000F80E15C0DBFF14C0E9FF15C0EAFF120061
:101E4000DA20EA6EEF2AEECFF6FF000EEF22EECF99
:101E5000F7FFEF22EECFF8FF1200040EDBCFE6FF14
:101E6000130EDB50E552E75C9ADFDB5004DF060E11
:101E7000DB501200090EDB500A0DF350DF24D00FA7
:101E8000E76E090EE7CFDBFF25EF0EF0DB50F36EB8
:101E9000050E53EF0EF0F70EDBCF14F0F80EDBCF8C
:101EA00015F01200DFCFE6FF2FEF0EF028DF030E54
:101EB000ECDED4EF0EF081EC09F0E552E552E5528C
:101EC000E55200091200BDDEEE50EFCFEAFFE96EE9
:101ED000010E1200130EDB50F36E040E53EF0EF0E2
:101EE000040EDB50F36E090E53EF0EF0DBCFE6FF6E
:101EF0002FEF0EF0E76E050EE7CFDBFF12008BDF52
:101F000052EF0FF0DBCFE6FF86DF5BEF0FF0D9502B
:101F1000F90FE96EFF0E20EF0FF0E96E000EDA20E8
:041F2000EA6E120053
:0C1F2400D9CFE6FFE1CFD9FF080EE1267F
:101F3000DE6ADD6A020EDB6A030EDB6A040EDB6A10
:101F4000050EDB6A060EDB6A070EDB6A640EE66EC0
:101F5000E66A04EC19F0E552E55228D834D80501B8
:101F6000CE6BCEC5E6FFBDEC13F0E552C282809A7F
:101F7000EC0E146E310E156E166A14C0E6FF15C015
:101F8000E6FF16C0E6FF0DEC18F0E552E552E5520B
:101F90009CEC00F067D8FCD7080EE15C02E2E16A35
:101FA000E552E16EE552E7CFD9FF120010EF00F0E5
:101FB0000001E26BE16B010EE06FF80E8A169316DA
:101FC000938C938A1200F29EC26AC198C19AC1860C
:101FD000C194C182C180C06AC08EC08AC088C086D8
:101FE000C084C092C080DF0E926EF80E936EF19E98
:101FF000BF0E946EAC9A9468B896AC84AC98AB8ED5
:10200000AB88AB9A9D989D9AAC9CAB9CAC9AB898C7
:10201000B89A330EAF6EEA0E146E310E156E166A54
:1020200014C0E6FF15C0E6FF16C0E6FF0DEC18F081
:10203000E552E552E552330EAF6ECA6ACA82CA80D3
:10204000CA9CCA8ACA98CA96960ECB6E9E92CA84B9
:10205000F26AF298F296F29C9D92F16AF19EF19CDE
:10206000F29E1200D9CFE6FFE1CFD9FF550EE1264F
:10207000400EDB6A410EDB6AC20EF36E420EF3CFF6
:10208000DBFF010EF36E430EF3CFDBFF900EF36E1A
:10209000440EF3CFDBFF010EF36E450EF3CFDBFFF3
:1020A000AE0EF36E460EF3CFDBFF010EF36E470E5E
:1020B000F3CFDBFF900EF36E480EF3CFDBFF010E84
:1020C000F36E490EF3CFDBFF960EF36E4A0EF3CF9D
:1020D000DBFF4B0EDB6AC80EF36E4C0EF3CFDBFF5B
:1020E0004D0EDB6AC80EF36E4E0EF3CFDBFF4F0EC4
:1020F000DB6AC80EF36E500EF3CFDBFF510EDB6AC6
:10210000530EDB6A9EA232D09E920501CF2B000EA9
:10211000D023640ECF5D000ED05928E3CF6BD06B77
:102120008AA402D08A9401D08A84D1C514F0D2C581
:1021300015F0D12B000ED22314C0E6FF15C0E6FF28
:10214000DD0E166E310E176E186A16C0E6FF17C048
:10215000E6FF18C0E6FF0DEC18F0196E050EE15E03
:102160001950010EF36E530EF3CFDBFFC2B20CD148
:102170000501CE5103E0020ECE5D60E1D9504A0F59
:102180001E6EDACF1FF0CE51020D1E50F324E96E01
:102190001F50F420EA6EEECF1CF0EFCF1DF01CC0F4
:1021A000E6FF1DC0E6FF37DBE552E7CF1DF0E55245
:1021B000E7CF1CF0F3CF18F0F4CF19F0FF0ED88062
:1021C0001856030E1956D950420F1A6EDACF1BF06B
:1021D0000501CE51020D1A50F324E96E1B50F42074
:1021E000EA6EEE50185C166EEE501958176EFF0E20
:1021F0001702F3CF17F01602F3CF16F0F45017269C
:1022000016C006F017C007F01CC00BF01DC00CF084
:1022100084EC19F006C014F007C015F00501CE518A
:10222000E96EEA6AD890E936EA36C60EE926050E66
:10223000EA2214C0EEFF15C0EDFF63D0D9504A0F5B
:102240001E6EDACF1FF0CE51020D1E50F324E96E40
:102250001F50F420EA6EEECF1CF0EFCF1DF0D950E6
:10226000420F1A6EDACF1BF0CE51020D1A50F32432
:10227000E96E1B50F420EA6EEECF18F0EFCF19F0A4
:1022800018C0E6FF19C0E6FF1CC0E6FF1DC0E6FF50
:10229000C2DAE552E7CF1DF0E552E7CF1CF0E55278
:1022A000E7CF19F0E552E7CF18F01850F35C166E3F
:1022B0001950F458176EFF0E1702F3CF17F01602DD
:1022C000F3CF16F0F450172616C006F017C007F02B
:1022D0001CC00BF01DC00CF084EC19F006C014F00B
:1022E00007C015F00501CE51E96EEA6AD890E936CB
:1022F000EA36C60EE926050EEA2214C0EEFF15C026
:10230000EDFFCE51E96EEA6AD890E936EA36C60E9C
:10231000E926050EEA222C0ED880EE54010EED546B
:102320000DE2CE51E96EEA6AD890E936EA36C60E79
:10233000E926050EEA22EE6AED6A1CD0CE51E96E5E
:10234000EA6AD890E936EA36C60EE926050EEA2290
:10235000FF0ED880EE54000EED540CE2CE51E96E23
:10236000EA6AD890E936EA36C60EE926050EEA2270
:10237000EE68ED6ACE2B040ECE5D01E3CE6BCEC5CA
:10238000E6FFFBD9E552C282200E0501E76E9119E6
:10239000E8AE02D0E73402D0E750915D03E36D5020
:1023A000020B01E009D1530EDB504AE0CCC5E6FF39
:1023B000CDC5E6FFCAC5E6FFCBC5E6FFC8C5E6FF4B
:1023C000C9C5E6FFC6C5E6FFC7C5E6FFCC0E146E5D
:1023D000310E156E166A14C0E6FF15C0E6FF16C072
:1023E000E6FFD9CFE6FFDACFE6FF1BEC17F0176E5A
:1023F0000D0EE15E1750400EF3CFDBFF410EF4CF20
:10240000DBFF400EDBCF14F0410EDBCF15F01534AF
:1024100004E214504008000E155406E2400EF36E1C
:10242000F3CFDBFF410EDB6A400EDBCFE6FFD9CFF7
:10243000E6FFDACFE6FF74EC15F0E552E552E5521F
:102440000001E15111E0E0510EE10001E8510BE122
:10245000B70EE66E310EE66ECDEC15F0E552E552A4
:102460000001010EE06F01D0E06B0001E85101E0D6
:10247000A1D0400EE66EA00EE66E000EE66E13ECE6
:1024800015F0E552E552E552E76E520EE7CFDBFF5D
:10249000DB5001E18FD0540EDB6A520EDB50F36E3D
:1024A000540EDBCFF4FFF350F45C37E2540EDB50F4
:1024B000EA6AA00FE96E000EEA22EF500A0A16E05F
:1024C000070A14E0540EDB50EA6AA00FE96E000E12
:1024D000EA22EF28E66E540EDB50EA6A600FE96EDE
:1024E000000EEA22E552E750EF6E14D0540EDB5096
:1024F000EA6AA00FE96E000EEA22EF50E66E540E73
:10250000DB50EA6A600FE96E000EEA22E552E750FE
:10251000EF6E00D0540EDB2AC0D70501CF6BD06B15
:10252000CCC5E6FFCDC5E6FFCAC5E6FFCBC5E6FFD5
:10253000C8C5E6FFC9C5E6FFC6C5E6FFC7C5E6FFD5
:10254000A60E146E310E156E166A14C0E6FF15C085
:10255000E6FF16C0E6FFD9CFE6FFDACFE6FF1BECB9
:1025600017F0176E0D0EE15E1750400EF3CFDBFF34
:10257000410EF4CFDBFF400EDBCF14F0410EDBCF7A
:1025800015F0153404E214504008000E155406E20C
:10259000400EF36EF3CFDBFF410EDB6A400EDBCF64
:1025A000E6FFD9CFE6FFDACFE6FF74EC15F0E5528F
:1025B000E552E55210EC16F0550EE15C02E2E16ADC
:1025C000E552E16EE552E7CFD9FF12000501D35184
:1025D000D41104E1100ED36F270ED46FD307000E71
:1025E000D45B6DA20AD0D351D41106E18A748AA4B7
:1025F00002D08A8201D08A922ED00501915103E146
:102600008A948A9228D0910503E18A848A8223D011
:10261000020E915D03E18A848A921DD0040E915DC1
:1026200003E18A948A8217D0100E915D07E10501BB
:10263000D351D41102E18A748A920DD0200E915D9B
:102640000AE10501D351D41106E18A748AA402D0AB
:102650008A9201D08A821200120012008150400B2F
:1026600001E0010E0001E15D0DE1E25102E0E2074F
:1026700008D08150400B400A01E0010EE16F640E6A
:10268000E26F03D0E25101E0E2071200120048EFCE
:1026900014F0120099EF14F00501B5051EE10501D3
:1026A000B6051BE1DADF6D920501B66B0001100E75
:1026B000E56F0E0EE66FE507000EE65BE551E611ED
:1026C000FAE16D84080EE56F070EE66FE507000E70
:1026D000E65BE551E611FAE16D941200D9CFE6FF11
:1026E000E1CFD9FFFD0EDBCF06F0FE0EDBCF07F00A
:1026F000050E061801E1075039E0E868061802E106
:102700007F0E071831E0030E061801E107502AE09A
:10271000020E061801E1075023E0010E061801E140
:1027200007501CE0740E061801E1075015E0750E05
:10273000061801E107500EE0730E061801E107507C
:1027400007E0720E061801E1075001E010D00FD02B
:1027500085DF0DD081DF0BD080DF09D09BDF07D074
:1027600098DF05D094DF03D091DF01D000D0010EB7
:1027700000D0E552E7CFD9FF1200D9CFE6FFE1CF75
:10278000D9FFFE0EDB50040DF3500109C26EE55275
:10279000E7CFD9FF1200D9CFE6FFE1CFD9FF040E72
:1027A000E126C282C2B2FED7C450DE6EDD6ADECF41
:1027B00014F0DDCF15F014C015F0146A000E1416D5
:1027C000030E151614C0DEFF15C0DDFFC350E76E03
:1027D000000EDFCF14F0010EDBCF15F0E75014121E
:1027E000020E14C0DBFF030E15C0DBFF020EDBCFB1
:1027F00014F0030EDBCF15F014C0F3FF15C0F4FF87
:10280000040EE15C03E200D0E16AE552E16EE552BC
:10281000E7CFD9FF1200D9CFE6FFE1CFD9FF040EF1
:10282000E126C450DE6EDD6ADECF14F0DDCF15F098
:1028300014C015F0146A000E1416030E151614C0F9
:10284000DEFF15C0DDFFC350E76E000EDFCF14F0D2
:10285000010EDBCF15F0E7501412020E14C0DBFF9F
:10286000030E15C0DBFF020EDBCF14F0030EDBCF2F
:1028700015F014C0F3FF15C0F4FF040EE15C03E291
:1028800000D0E16AE552E16EE552E7CFD9FF1200D0
:10289000040130511F0B010801E04AD03051600B98
:1028A000E842E842E842E842E842010801E040D05C
:1028B000345103E0340501E03BD03151220A33E0CA
:1028C000030A26E0010A17E0210A0EE0010A01E0EE
:1028D0002FD00501F80EA76F000EA86F080EAA6F83
:1028E000AB6BA981A98F24D00501F80EA76F000E4C
:1028F000A86FA98F1DD036C4AFF537C4B0F5050158
:10290000800EAC6F050EAD6FB16BB26BAE8F10D099
:102910000501800EA76F050EA86F070EAA6FAB6B9F
:10292000C10EA96F05D032C4F3F00501A98F00D004
:1029300012000501806B4B0E816F826B836B846B81
:10294000856B080E866F0001E76B1A0EE66E010EAE
:10295000E66E6DEC01F0E552E5521E0EE66E020EDB
:10296000E66E6DEC01F0E552E552400EE66E400E6B
:10297000E66E050EE66EE66A020EE66EA4EC01F067
:10298000146E050EE15E1450F3CFEFF0F4CFF0F0CB
:102990000001F16BF26BE86B1200D9CFE6FFE1CFDB
:1029A000D9FFFD0EDBCF06F0FE0EDBCF07F0050EE4
:1029B000061801E1075002E0000E31D0FB0EDBCF1C
:1029C00014F0FC0EDBCF15F00001EF51141802E1FA
:1029D000F051151813E1400EE66E400EE66E050E3E
:1029E000E66EE66A020EE66EA4EC01F0146E050EC9
:1029F000E15E1450F3CFEFF0F4CFF0F0FB0EDBCF3D
:102A000014F0FC0EDBCF15F00001F151141802E1B7
:102A1000F251151802E1E86BED6B010E00D0E552A2
:102A2000E7CFD9FF1200D9CFE6FFE1CFD9FF0001F0
:102A3000E76BEF51F01102E1000E08D0EFC0E9FFA3
:102A4000F0C0EAFFEF50800B01E0010E000945E104
:102A5000FC0EDBCF14F0EFC0E9FFF0C0EAFFEE524E
:102A6000EF50D880145408E2EFC0E9FFF0C0EAFF4D
:102A7000EE52FC0EEFCFDBFFE76BFC0EDB50E75DA9
:102A800019E2E751EA6A400FE96E050EEA22EF50BB
:102A9000E66EE751E76EFD0EDBCFE9FFFE0EDBCF02
:102AA000EAFFE750E926000EEA22E552E750EF6E12
:102AB000E72BE3D7400EE66E400EE66E050EE66E9F
:102AC000E66A020EE66EA4EC01F0146E050EE15EFD
:102AD0001450F3CFEFF0F4CFF0F00001E75100D045
:102AE000E552E7CFD9FF1200D9CFE6FFE1CFD9FFFA
:102AF0000001E8510CE1FD0EDBCFE9F0FE0EDBCF6B
:102B0000EAF0FC0EDBCFEDF0010EEE6FE86FE55260
:102B1000E7CFD9FF1200D9CFE6FFE1CFD9FF030EEF
:102B2000E1260001E85101E02ED0DF6AFD0EDBCF87
:102B300006F0FE0EDBCF07F0DE5206C0DEFF07C058
:102B4000DDFFDD52DF2ADF50146E156AFF0E141808
:102B500001E1155001E10BD0010EDBCFE9FFDB2ACB
:102B6000020EDBCFEAFF01E3DB2AEF50EBE1FD0EC3
:102B7000DBCFE9F0FE0EDBCFEAF0DFCFEDF00001B6
:102B8000010EEE6FE86F030EE15C02E2E16AE552CE
:102B9000E16EE552E7CFD9FF1200D9CFE6FFE1CFD2
:102BA000D9FF030EE1260001E85101E02FD0DF6AD2
:102BB000FD0EDBCF06F0FE0EDBCF07F0DE5206C0C7
:102BC000DEFF07C0DDFFDD52DF2ADF50146E156A1D
:102BD000FF0E141801E1155001E10CD0010EDBCFFE
:102BE000F6FFDB2A020EDBCFF7FF01E3DB2A08004A
:102BF000F550EAE1FD0EDBCFE9F0FE0EDBCFEAF0A7
:102C0000DFCFEDF00001EE6B010EE86F030EE15C2B
:102C100002E2E16AE552E16EE552E7CFD9FF120028
:102C2000D9CFE6FFE1CFD9FF020EE1260001F15135
:102C3000F21102E1000E08D0F1C0E9FFF2C0EAFF94
:102C4000EF50800B01E0010E000901E085D0030E7A
:102C5000E85D01E1E86BE85101E17ED0020EE85D3C
:102C600016E1E66A000EE66EE66A010EE66E020EF8
:102C7000E66EA4EC01F0146E050EE15E1450F3CF85
:102C8000F1F0F4CFF2F00001030EE86F65D0E80533
:102C900063E1400E146E156AED51145C000E155878
:102CA00003E2400EDF6E02D0EDC0DFFFDF50ED5DCE
:102CB000ED6F000EEB6F050EEC6F010EDFCFDBFF4B
:102CC000EE5117E1010EDB5013E0E9C0F6FFEAC058
:102CD000F7FF0800F550EBC0E9FFECC0EAFFEF6E2C
:102CE000EB2B000EEC23E92BEA23010EDB06EAD7DF
:102CF00015D0010EDB5012E0E9C0E9FFEAC0EAFF9F
:102D0000EF50EBC0E9FFECC0EAFFEF6EEB2B000EDB
:102D1000EC23E92BEA23010EDB06EBD7ED5108E1AA
:102D2000400EDF5C03E1020EE86F02D0030EE86F95
:102D3000DFCFE6FF000EE66E050EE66E010EE66ED4
:102D4000020EE66EA4EC01F0146E050EE15E145066
:102D5000F3CFF1F0F4CFF2F0020EE15C02E2E16AAF
:0C2D6000E552E16EE552E7CFD9FF12000A
:042D6C00120100024E
:102D700002000008D8040A00000101020001090253
:102D80004300020100C032090400000102020100F8
:102D90000524001001042402020524060001052474
:102DA0000100010705810308000209040100020A6D
:102DB00000000007050202400000070582024000F3
:102DC000000403090434034D006900630072006FBE
:102DD0000063006800690070002000540065006313
:102DE0000068006E006F006C006F006700790020C3
:102DF0000049006E0063002E00340343004400438A
:102E0000002000520053002D003200330032002019
:102E10000045006D0075006C006100740069006F72
:102E2000006E002000440065006D006F007E2DC123
:052E30002DC52DF92D58
:0A2E3600D9CFE6FFDACFE6FFE1CFC7
:102E4000D9FFE2CFDAFFE652E652E652E652D95017
:102E5000F90F146EFF0EDA20156E020E14C0DBFFA0
:102E6000030E15C0DBFF020EDBCFE6FF030EDBCF48
:102E7000E6FFF90EDBCFE6FFFA0EDBCFE6FFFB0E37
:102E8000DBCFE6FFD950FC0FE66EFF0EDA20E66ED0
:102E900097EC09F0146E070EE15C02E2E16AE5527C
:102EA000E16E1450F3CFDEFFF4CFDDFFFC0EDBCF7D
:102EB000E9FFFD0EDBCFEAFFEF6ADECF14F0DDCFD6
:102EC00015F014C0F3FF15C0F4FF040EE15C02E23C
:102ED000E16AE552E16EE552E5CFDAFFE7CFD9FFCF
:022EE0001200DE
:0E2EE200060EF66E000EF76E000EF86E05017D
:102EF0000900F550DA6F0900F550DB6F03E1DA677E
:102F000001D03DD00900F550D56F0900F550D66FBE
:102F10000900F550D76F09000900F550E96E090066
:102F2000F550EA6E090009000900F550D86F090054
:102F3000F550D96F09000900F6CFDCF5F7CFDDF5C4
:102F4000F8CFDEF5D5C5F6FFD6C5F7FFD7C5F8FF34
:102F50000501D85302E1D95307E00900F550EE6EA0
:102F6000D807F8E2D907F9D7DCC5F6FFDDC5F7FFCA
:102F7000DEC5F8FF0501DA07000EDB5BBFD71200E4
:102F8000FE0EE3CFE9FFFF0EE3CFEAFFE9CFF3FF49
:102F9000EACFF4FFFB0EE35003E1FC0EE35009E03F
:102FA000FB0EE30602E2FC0EE306FD0EE350EE6EBE
:102FB000F1D71200FE0EE3CFE9FFFF0EE3CFEAFFE9
:102FC000F36AF46AEE5203E0F34AF42AFBD71200E4
:102FD000FF0EE3CFF8FFE552FF0EE3CFF7FFE55218
:102FE000FF0EE3CFF6FFE552E66AE66AE66A0900FD
:102FF000F55209E0FD0EE32A05E1FE0EE32A02E1A7
:10300000FF0EE32AF4D7FD0EE3CF05F0FE0EE3CF6B
:0A30100006F0FF0EE3CF07F01200F8
:06301A00D9CFE6FFDACF7A
:10302000E6FFE1CFD9FFE2CFDAFFE652E652E65201
:10303000E652D950FB0F146EFF0EDA20156E14C045
:10304000DEFFDD6EDECFE6FFDDCFE6FFFB0EDBCF82
:10305000E6FFFC0EDBCFE6FFFD0EDBCFE6FFDFC5B4
:10306000E6FFE0C5E6FF97EC09F0146E070EE15CA1
:1030700002E2E16AE552E16E1450020EF3CFDBFF8B
:10308000030EF4CFDBFF020EDBCF14F0030EDBCF19
:1030900015F014C0F3FF15C0F4FF040EE15C02E26A
:1030A000E16AE552E16EE552E5CFDAFFE7CFD9FFFD
:0230B00012000C
:0E30B200D9CFE6FFDACFE6FFE1CFD9FFE2CFBC
:1030C000DAFFFB0EDBCF14F0FC0EDBCF15F00001B6
:1030D000800E15141AE1FB0EDBCFE9FFFC0EDBCFEF
:1030E000EAFFEECFF3FFEDCFF4FFEE2A000EEF2262
:1030F000F3CFE9FFF4CFEAFFFD0EDBCFEFFFEF5098
:10310000156AF36E15C0F4FF10D0FB0EDB50FE08FD
:1031100006E1FD0EDBCFE6FFCAEC19F005D0FD0E8F
:10312000DBCFE6FFE3EC19F0E552E552E5CFDAFF3D
:06313000E7CFD9FF1200F9
:0A31360004500902F3CF00F0F4CFBB
:1031400001F00A02F3500126000EF420026E045032
:103150000B02F3500226000EF420036E04500C0202
:10316000F350032605500902F3500126F4500222C1
:10317000000E032205500A02F3500226F4500322E7
:1031800005500B02F350032606500902F3500226A5
:10319000F450032206500A02F35003260750090296
:0631A000F35003261200AB
:0A31A6000D3C25642C2025642C202C
:1031B00025642C20256400427574746F6E20507253
:1031C0006573736564202D2D200D0A000D3E256466
:1031D0002C2025642C2025642C202564000D436FB1
:1031E000756E7465723A2025640058000D5465733D
:1031F00074696E672055415254206174203537360A
:083200003030206261756400AA
:08320800D9CFE6FFE1CFD9FFA9
:10321000020EE126FD0EDBCF14F0DB06FE0EDBCF47
:1032200015F001E2DB061450151013E0640EDF6E9A
:10323000DF50DF0600090CE0DE52040EDD6E010EE9
:10324000DBCFF3FFDB06F350000901E0F8D7F0D73E
:10325000E1D7020EE15C02E2E16AE552E16EE5527D
:06326000E7CFD9FF1200C8
:0A32660007C013F006C012F0065076
:103270000B02F4CF05F0F3CF04F007500C02F4CFAB
:1032800007F0F3CF06F00B02F3500526F4500622A8
:10329000E86A072212500C02F3500526F450062269
:1032A000E86A07220CAE59EF19F01250065E13506F
:1032B000075A13AE000C0B50065E0C50075A000C58
:1032C000036A026A016A006A200EE76ED89004362B
:1032D0000536063607360036013602360336095003
:1032E000005C0A5001580B5002580C50035809E377
:1032F0000950005E0A50015A0B50025A0C50035AF2
:08330000042AE72EE4D71200B5
:08330800036A026A100EE76E71
:10331000D89006360736023603360B50025C0C5046
:10332000035805E30B50025E0C50035A062AE72EA1
:04333000F0D71200C0
:0C333400F36AF46AFF0EE124E96EFF0E5C
:10334000E220EA6EED6607D02F0EEF6404D03A0E4D
:08335000EF6001D0F32A120026
:08335800000EF36E00EE00F020
:10336000080E01D81200EA6002D0EE6AFCD7F350D2
:08337000E9601200EE6AFCD7CF
:0833780013EE00F023EE00F05B
:10338000F86A0F9C71EC17F0E4EC19F092EC0FF076
:04339000FBD7120055
:0C339400FF0EE350ACBA04D0AF6AAB8E61
:1033A000AC8A949CACA2FED7AD6EF36EF46A1200A8
:1033B00030313233343536373839616263646566AB
:0133C000000C
:0433C1000001FFFF09
:0233C6001200F3
:0233C8001200F1
:0233CA00FEFF04
:0433CC0000000000FD
:0B33D0000000000000000000000000F2
:020000040030CA
:0100000023DC
:010001000EF0
:010002003FBE
:010003001EDE
:010005008179
:010006008178
:010008000FE8
:01000900C036
:01000A000FE6
:01000B00E014
:01000C000FE4
:01000D0040B2
:00000001FF
