:020000040000FA
:0600000044EF0EF01200B7
:0A0006000100C01C0000FE00000015
:0400100002000000EA
:0C001400D9CFE6FFE1CFD9FFE652A09A59
:100020006A6A686A706A020EE66EE66AE66A710ECD
:10003000E66E0F0EE66E1AEC0EF00B6E050EE15E2C
:100040000B50160E6F6E9F0E6B6E7B0E696EDF6A25
:10005000DF500B6E0C6A0C0E0B5C000E0C5810E29D
:10006000DF50040DF3CFE9FFF4CFEAFF000EE926DD
:10007000040EEA22EE6AEE6AEE6AEE6ADF2AE8D73A
:100080006D8C6E6A6D986D9C68A607D068960501A8
:10009000A96BAE6BAF6BB06BF7D70501010EC26FEA
:1000A000C36FC46BC56BB66BDF6A030EDF5C26E201
:1000B000EA6ADF34FE0BEA36E96E9F0EE926050E8A
:1000C000EA22EE6AED6AEA6ADF34FE0BEA36E96E8E
:1000D000990EE926050EEA22EE6AED6ADF50EA6A19
:1000E000BA0FE96E050EEA22EF6ADF50EA6ABD0F29
:1000F000E96E050EEA22EF6ADF2AD7D70501080E5E
:100100009F6F040EA06F160E706E0401300E026F0A
:10011000040E036F080E016F840E006F0501926BD1
:10012000916BE552E552E7CFD9FF1200D9CFE6FF38
:10013000E1CFD9FFE6520501915116E106D06D6A73
:10014000696A0501916BA19ABDD06D6A696A160E44
:100150006F6E9F0E6B6E7B0E696E6DB602D06D86F4
:10016000FCD70501010E916F910508E16DBA06D02B
:10017000686A696A69806988020E916F6850040B29
:1001800006E06950040B03E06894A3EC06F06DA24E
:1001900002D0A19A97D06850010B08E06950010B7A
:1001A00005E038DF0501040E916F68906850100B70
:1001B00006E06950100B03E08EEC06F0689868AC1E
:1001C00019D069AC0FD0010EE66EE66A000EE66E3D
:1001D000E66A730EE66EE66A17EC0DF00B6E060E1D
:1001E000E15E0B50689C0501C05101E0C007C051A1
:1001F00001E1EFD96850200B05E06950200B02E0C7
:1002000075EC06F06850020B13E06950020B10E029
:10021000010EE66EE66A000EE66EE66AE6687F0E9E
:10022000E66E17EC0DF00B6E060EE15E0B506A6A7F
:10023000040E0501E76E9119E8AE02D0E73402D052
:10024000E750915D02E2A19A3DD069A63AD0DF6AFB
:10025000040EDF5C36E268A631D06CCFB7F505013D
:10026000B751780BE842E842E842B86F6896B7B5F4
:1002700008D0B851EA6ABD0FE96E050EEA22EF70A8
:1002800007D0B851EA6ABA0FE96E050EEA22EF709C
:10029000B85103E1BAEC06F010D0000EE66EE66A43
:1002A000B70EE66E050EE66E720EE66EE66A17ECA7
:1002B0000DF00B6E060EE15E0B5001D002D0DF2A6E
:1002C000C7D7A19AE552E552E7CFD9FF1200D9CF9F
:1002D000E6FFE1CFD9FF020EE126FD0EDBA407D039
:1002E000E66AFE0EDBCFE6FF05DAE552E552FD0ECB
:1002F000DBA208D0010EE66EFE0EDBCFE6FFFAD9D8
:10030000E552E552FE0EDB500C6A700F0B6E0F0EBD
:100310000C220BC0DEFF0CC0DDFFDECFE9FFDDCF1E
:10032000EAFFFD0EDBCFEFFF020EE15C02E2E16AC5
:10033000E552E16EE552E7CFD9FF1200D9CFE6FFD3
:10034000E1CFD9FF020EE126FD0EDB500FE0FE0EDD
:10035000EA6ADB34FE0BEA36E96E9F0EE926050EEB
:10036000EA22EECFDEFFEDCFDDFF0ED0FE0EEA6A11
:10037000DB34FE0BEA36E96E990EE926050EEA2219
:10038000EECFDEFFEDCFDDFFD9CFE9FFDACFEAFF19
:10039000EE50ED1003E1F36AF46A49D0DECFE9FFD5
:1003A000DDCFEAFF020EE926000EEA22FB0EDBCFCC
:1003B000EEFFFC0EDBCFEDFFDECFE9FFDDCFEAFF86
:1003C000EE52FA0EDBCFEFFF400E0B6EDECFE9FFF1
:1003D000DDCFEAFF0B50EF16880E0B6EDECFE9FF84
:1003E000DDCFEAFF0B50EF12FD0EDB500CE0FE0EEE
:1003F000EA6ADB34FE0BEA36E96E9F0EE926050E4B
:10040000EA22EF740BD0FE0EEA6ADB34FE0BEA360A
:10041000E96E990EE926050EEA22EF74DECF0BF0A5
:10042000DDCF0CF00BC0F3FF0CC0F4FF00D0020EC8
:10043000E15C02E2E16AE552E16EE552E7CFD9FF05
:100440001200D9CFE6FFE1CFD9FF020EE126FE0E62
:10045000DB5020E197C5E9FF98C5EAFFEE52080E90
:10046000EF6E97C5E9FF98C5EAFF020EE926000E78
:10047000EA22300EEE6E040EED6E97C5E9FF98C5C8
:10048000EAFF8C0EEF6E9FC5E9FFA0C5EAFF840E60
:10049000EF6E3DD0FD0EDB50E8240D6EFE0EDB50FE
:1004A000040DF3500D24040DF3CF0BF0F4CF0CF03A
:1004B000000E0B26040E0C220BC0DEFF0CC0DDFF6D
:1004C000840E0B6EDECFE9FFDDCFEAFF0B50EF129B
:1004D000FD0EDB50E8240D6EFE0EDB50040DF350D4
:1004E0000D24010F040DF3CF0BF0F4CF0CF0000E30
:1004F0000B26040E0C220BC0DEFF0CC0DDFF840EA9
:100500000B6EDECFE9FFDDCFEAFF0B50EF12020EDC
:10051000E15C02E2E16AE552E16EE552E7CFD9FF24
:100520001200D9CFE6FFE1CFD9FF6DA84ED0FE0E65
:10053000EA6ADB34FE0BEA36E96E9F0EE926050E09
:10054000EA22EE50EFCFEAFFE96E400EEE16EE6AB9
:10055000EE6AEE6AFE0EEA6ADB34FE0BEA36E96EFC
:100560009F0EE926050EEA22EE50EFCFEAFFE96E74
:10057000EE7CFE0EEA6ADB34FE0BEA36E96E9F0E75
:10058000E926050EEA22EF74400E0B6EFE0EEA6AB3
:10059000DB34FE0BEA36E96E9F0EE926050EEA22F1
:1005A000EE50EFCFEAFFE96E0B50EF16FE0EEA6A4F
:1005B000DB34FE0BEA36E96E9F0EE926050EEA22D1
:1005C000EE50EFCFEAFFE96EEF7CE552E7CFD9FFBF
:1005D00012000501C2514DE1010EC26FC35149E144
:1005E000010EC36F020EA65D0DE19FC5E9FFA0C518
:1005F000EAFFEE52EF6A9FC5E9FFA0C5EAFFC80E09
:10060000EF6E37D0A60535E1B96B95C5E9FF96C504
:10061000EAFFEE52080EEF6E95C5E9FF96C5EAFFB8
:10062000020EE926000EEA22300EEE6E040EED6E8A
:1006300095C5E9FF96C5EAFF840EEF6E010EB96F0E
:1006400097C5E9FF98C5EAFFEE52080EEF6E97C511
:10065000E9FF98C5EAFF020EE926000EEA22300EF5
:10066000EE6E040EED6E97C5E9FF98C5EAFF800EA9
:10067000EF6E12000501C46BC56B020EA65D1AE198
:1006800097C5E9FF98C5EAFFEE52080EEF6E97C5D1
:10069000E9FF98C5EAFF020EE926000EEA22380EAD
:1006A000EE6E040EED6E97C5E9FF98C5EAFFC80E21
:1006B000EF6E1FD0AA510401365D0501AB51040154
:1006C000375904E236C4AAF537C4ABF5D1D89FC573
:1006D000E9FFA0C5EAFF020EE926000EEA22380E65
:1006E000EE6E040EED6E9FC5E9FFA0C5EAFFC80ED1
:1006F000EF6E1200D9CFE6FFE1CFD9FF020EE1265F
:10070000000EDE6E040EDD6EFD0EDB50E8240D6E75
:10071000FE0EDB50040DF3500D24040DF3CF0BF04F
:10072000F4CF0CF0D9CFE9FFDACFEAFF0B50EE2679
:100730000C50ED22DECFE9FFDDCFEAFFEF9EFD0E8C
:10074000DB500FE1FE0EEA6ADB34FE0BEA36E96E9F
:10075000990EE926050EEA22DECFEEFFDDCFEDFF92
:100760000ED0FE0EEA6ADB34FE0BEA36E96E9F0E0F
:10077000E926050EEA22DECFEEFFDDCFEDFFDECF6C
:10078000E9FFDDCFEAFFEF9CDECFE9FFDDCFEAFF37
:10079000040EE926000EEA22EF8C020EE15C02E272
:1007A000E16AE552E16EE552E7CFD9FF12006D989C
:1007B0000501A9BF2BD0AEAF09D0020EA66FC5515F
:1007C00001E158DF0501C36BC26B1FD097C5E9FF7C
:1007D00098C5EAFFEE52080EEF6E97C5E9FF98C57F
:1007E000EAFF020EE926000EEA22300EEE6E040E3B
:1007F000ED6E97C5E9FF98C5EAFF8C0EEF6E9FC5B9
:10080000E9FFA0C5EAFF840EEF6E31D0040130AFDE
:100810000DD00501010EA66FC45101E12BDF0501CA
:10082000C36BC26BC15101E1D4DE21D00501020EC0
:10083000A66F97C5E9FF98C5EAFFEE52080EEF6E66
:1008400097C5E9FF98C5EAFF020EE926000EEA22E5
:10085000300EEE6E040EED6E97C5E9FF98C5EAFF07
:10086000840EEF6EC36BC26BC15101E1B2DE1200A8
:10087000D9CFE6FFE1CFD9FFE652080EDF6E0501C2
:10088000AA5D000EAB590BE2AAC5DFFFA55103E13B
:10089000010EA56F04D0A50502E1020EA56FDF5081
:1008A0000B6E0C6A0B50AA5DAA6F0C50AB59AB6F64
:1008B0009FC5E9FFA0C5EAFFEE52DFCFEFFF380E7C
:1008C000B36F040EB46FA9B119D0DF5016E0A7C5FD
:1008D000F6FFA8C5F7FFA72B000EA8230800F550C8
:1008E000E66EB3C5E9FFB4C5EAFFB32B000EB4232F
:1008F000E552E750EF6EDF06E8D717D0DF5015E07E
:10090000A7C5E9FFA8C5EAFFA72B000EA823EF5053
:10091000E66EB3C5E9FFB4C5EAFFB32B000EB423FE
:10092000E552E750EF6EDF06E9D7E552E552E7CF33
:10093000D9FF1200D9CFE6FFE1CFD9FF020EE126A1
:1009400095C5E9FF96C5EAFFEE52EFCFDFFFDFCF97
:100950000BF00B500501AF5D000EB05902E2AFC5C0
:10096000DFFFDF500B6E0C6A0B50AF5DAF6F0C50AA
:10097000B059B06F010EDB6ADF50F36E010EDBCFB2
:10098000F4FFF350F45C16E2010EDB50EA6A380F14
:10099000E96E040EEA22EF50E66EACC5E9FFADC584
:1009A000EAFFAC2B000EAD23E552E750EF6E010ECF
:1009B000DB2AE2D7000ED880AF55000EB05528E2F2
:1009C00097C5E9FF98C5EAFFEE52080EEF6E97C58E
:1009D000E9FF98C5EAFF020EE926000EEA22380E6A
:1009E000EE6E040EED6E95C5E9FF96C5EAFFEF5079
:1009F000400B07E197C5E9FF98C5EAFFC80EEF6E07
:100A000006D097C5E9FF98C5EAFF880EEF6E28D09B
:100A100097C5E9FF98C5EAFFEE52080EEF6E97C53D
:100A2000E9FF98C5EAFF020EE926000EEA22300E21
:100A3000EE6E040EED6E97C5E9FF98C5EAFF840ED1
:100A4000EF6EB151B21107E005D0B2C5FAFF050152
:100A5000B151F96EFADF0501AE9FC15101E1B9DD77
:100A6000020EE15C02E2E16AE552E16EE552E7CF97
:100A7000D9FF1200D9CFE6FFE1CFD9FFE652050139
:100A8000A98F020EE66EE66AE66A710EE66E0F0E3A
:100A9000E66E1AEC0EF00B6E050EE15E0B50300E9A
:100AA000E66EE66AE66A000EE66E040EE66E1AEC84
:100AB0000EF00B6E050EE15E0B506D8CDF6A030EBF
:100AC000DF5C10E2DF50EA6ABA0FE96E050EEA2237
:100AD000EF6ADF50EA6ABD0FE96E050EEA22EF6A9F
:100AE000DF2AEDD7020EE66EE66AE66A930EE66E40
:100AF000050EE66E1AEC0EF00B6E050EE15E0B5065
:100B00006D9C0501080E9F6F040EA06F000E956F7F
:100B1000040E966F95C597F596C598F532C492F573
:100B2000925103E1100E916F13D0010EE66EE66A4A
:100B3000920EE66E050EE66E010EE66EE66A17ECA4
:100B40000DF00B6E060EE15E0B500501200E916F4D
:100B5000E552E552E7CFD9FF1200800E0401305D67
:100B60005BE10501C00EA96F04013351030A34E0B3
:100B7000010A0EE0030A03E00501A96B4DD005014F
:100B8000CC0EA76F1A0EA86F120EAA6FAB6B44D0D3
:100B90003251F66EF76AD890F636F7368D0EF62695
:100BA0001B0EF7220900F5CFA7F50A00F5CFA8F52F
:100BB000020E0501F76AA725F66EA851F722080074
:100BC000F5CFAAF5030EF76AA725F66EA851F7220E
:100BD0000800F5CFABF520D0030E325D1AE232519A
:100BE000F66EF76AD890F636F7368F0EF6261B0E9D
:100BF000F7220900F5CFA7F50A00F5CFA8F5A7C59C
:100C0000F6FFA8C5F7FF0800F5500501AA6FAB6B0A
:100C100002D00501A96B00D01200D9CFE6FFE1CFC9
:100C2000D9FF020EE1260401386B396B30511F0BDE
:100C3000020A12E0030A0DE0010A01E042D00501B8
:100C4000A98F040138810501B50502E1040138834B
:100C500038D00501A98F35D00501A98F040134BF13
:100C600010D034510F0BE96EEA6AD890E936EA36B3
:100C7000990EE926050EEA22EECFDEFFEDCFDDFF6D
:100C80000FD034510F0BE96EEA6AD890E936EA3694
:100C90009F0EE926050EEA22EECFDEFFEDCFDDFF47
:100CA000DECFE9FFDDCFEAFFEF50800B09E0DECFBA
:100CB000E9FFDDCFEAFFEF50040B02E0010E386FD1
:100CC00000D00501A9AF07D0380EA76F040EA86F9A
:100CD000A981020EAA6F020EE15C02E2E16AE5520E
:100CE000E16EE552E7CFD9FF120070A015D095C58F
:100CF000E9FF96C5EAFFEF5080080DE19FC5E9FFC7
:100D0000A0C5EAFFEF50840806E195C5E9FF96C546
:100D1000EAFF8C0EEF6E7090689A120069846898F2
:100D20006D820501010EB66F000EE66EE66AE66E94
:100D3000E66A750EE66EE66A17EC0DF00B6E060EAF
:100D4000E15E0B5012000501B66B000EE66EE66A1E
:100D5000E66EE66A740EE66EE66A17EC0DF00B6E50
:100D6000060EE15E0B506D92699468A402D06894FF
:100D7000FCD71200D9CFE6FFE1CFD9FFE65205013B
:100D80002D0EC06FFD0EB71553E17E0EB715E8406E
:100D90007F0B040DF3CF95F5F4CF96F5000E952754
:100DA000040E962395C597F596C598F5977595C544
:100DB000E9FF96C5EAFFEF503C0BE842E8420D0818
:100DC00035E1DF6A080EDF5C23E295C5E9FF96C5D1
:100DD000EAFF020EE926000EEA22EE50EFCFEAFF0C
:100DE000E96EEF50E66EDF50EA6A300FE96E040EEE
:100DF000EA22E552E750EF6E95C5E9FF96C5EAFF96
:100E0000020EE926000EEA22EE2AEF22DF2ADAD7C6
:100E100095C5E9FF96C5EAFF020EE926000EEA2213
:100E2000300EEE6E040EED6E0DD801D03AD805D01E
:100E3000FD0EB715040801E159D8E552E552E7CF98
:100E4000D9FF12000501A56BC16BC46BC56BB96BF3
:100E5000A66B9FC5E9FFA0C5EAFFEF9E9F759FC5E2
:100E6000E9FFA0C5EAFFEF9E9F7597C5E9FF98C50A
:100E7000EAFFEF9EA96BAA6BAB6BAE6BAF6BB06B6F
:100E80008FD8000EE66EE66AE66EE66A030EE66E40
:100E9000E66A17EC0DF00B6E060EE15E0B50D7EF15
:100EA00003F0020E0501A65D02E144DD1ED0A66B33
:100EB000B9511AE197C5E9FF98C5EAFFEE52080E4D
:100EC000EF6E97C5E9FF98C5EAFF020EE926000E0E
:100ED000EA22300EEE6E040EED6E97C5E9FF98C55E
:100EE000EAFF8C0EEF6E01D0B96B1200D9CFE6FF8E
:100EF000E1CFD9FFE6529FC5E9FFA0C5EAFFEF5059
:100F0000400B01E0010EDF6E05019F75080E915D3B
:100F100009E132C46EFF6E5003E0100E916F02D0F3
:100F2000040E916FA60528E19FC5E9FFA0C5EAFF61
:100F3000020EE926000EEA22380EEE6E040EED6E69
:100F400097DC020E0501A55D07E19FC5E9FFA0C57D
:100F5000EAFF840EEF6E0FD0DF5007E19FC5E9FF77
:100F6000A0C5EAFFC80EEF6E06D09FC5E9FFA0C579
:100F7000EAFF880EEF6E0FD0AEAF0CD0B151B211B8
:100F800007E005D0B2C5FAFF0501B151F96EFADFED
:100F90000501AE9FA66BE552E552E7CFD9FF1200DF
:100FA00004013051600BE842E842E842E842E8427E
:100FB000000901E058D031510C0A54E00B0A43E01B
:100FC0000C0A35E0010A26E00B0A22E0020A20E0C2
:100FD000030A1CE0080A10E0010A0CE00F0A08E00E
:100FE000030A01E03FD00501A98F080E916F3BD0A5
:100FF000B4DD39D03FDD37D00501920EA76F050E65
:10100000A86FA981010EAA6FA98F2DD006DE2BD063
:101010002BD829D034510501A76FA86B930EA727B1
:10102000050EA823A981010EAA6FA98F1CD0050166
:10103000A98F04013451EA6A930FE96E050EEA2282
:1010400032C4EFFF10D0000EE66EE66AE66EE66A86
:10105000020EE66EE66A17EC0DF00B6E060EE15E10
:101060000B5001D000D01200D9CFE6FFE1CFD9FF5D
:10107000050EE1260401320510E130511F0B000975
:101080000CE10501A98F030E0401315D04E10501A6
:10109000010EB56F02D00501B56B0401325101E0BC
:1010A00020D130511F0B020801E01BD134510F0B2E
:1010B000000901E116D134510F0B020801E211D1F0
:1010C000200E0501915D01E00CD1A98F040134BF10
:1010D0001AD034510F0BE96EEA6AD890E936EA3635
:1010E000990EE926050EEA22EECFDEFFEDCFDDFFF9
:1010F00034510F0BEA6ABD0FE96E050EEA22020EAB
:10110000EFCFDBFF19D034510F0BE96EEA6AD890AC
:10111000E936EA369F0EE926050EEA22EECFDEFF1B
:10112000EDCFDDFF34510F0BEA6ABA0FE96E050E01
:10113000EA22020EEFCFDBFFD950020FE96EDACFC1
:10114000EAFFEF50010B03E1000EDF9401D0DF84D2
:1011500034BF10D034510F0BE96EEA6AD890E936EB
:10116000EA36990EE926050EEA22DECFEEFFDDCF44
:10117000EDFF0FD034510F0BE96EEA6AD890E936D3
:10118000EA369F0EE926050EEA22DECFEEFFDDCF1E
:10119000EDFF030E315D23E1DECFE9FFDDCFEAFF96
:1011A000EF50800B13E034BF09D034510F0BEA6AC3
:1011B000BD0FE96E050EEA22EF8208D034510F0B05
:1011C000EA6ABA0FE96E050EEA22EF82840E0B6E10
:1011D000DECFE9FFDDCFEAFF0B50EF1282D0DF74E4
:1011E000DECFE9FFDDCFEAFFEF50800B1BE0DECF63
:1011F000E9FFDDCFEAFFEF9EDECFE9FFDDCFEAFFBB
:10120000EF8C020EE66EE66ADECFE6FFDDCFE6FF8C
:10121000050EE66EE66A17EC0DF00B6E060EE15E4B
:101220000B5005D0DECFE9FFDDCFEAFFEF8CDF7496
:10123000D950020FE96EDACFEAFFEF50020B07E157
:10124000DECFE9FFDDCFEAFFEF50800B2DE0040198
:1012500034BF09D034510F0BEA6ABD0FE96E050E99
:10126000EA22EF9208D034510F0BEA6ABA0FE96E06
:10127000050EEA22EF923B0E0B6EDECFE9FFDDCFCB
:10128000EAFF0B50EF16020EE66EE66ADECFE6FFCF
:10129000DDCFE6FF050EE66EE66A17EC0DF00B6E8D
:1012A000060EE15E0B5008D03B0E0B6EDECFE9FF61
:1012B000DDCFEAFF0B50EF16040134510F0B0C6A1F
:1012C000700F0B6E0F0E0C22030E0BC0DBFF040E13
:1012D0000CC0DBFF030EDBCFE9FF040EDBCFEAFF20
:1012E000EF90050EE15C02E2E16AE552E16EE55243
:0612F000E7CFD9FF120058
:0A12F600040130511F0B010801E054
:101300004AD03051600BE842E842E842E842E84205
:10131000010801E040D0345103E0340501E03BD046
:101320003151220A33E0030A26E0010A17E0210ABC
:101330000EE0010A01E02FD00501F60EA76F000EA6
:10134000A86F080EAA6FAB6BA981A98F24D00501E5
:10135000F60EA76F000EA86FA98F1DD036C4AFF58B
:1013600037C4B0F50501800EAC6F050EAD6FB16BE3
:10137000B26BAE8F10D00501800EA76F050EA86F5F
:10138000070EAA6FAB6BC10EA96F05D032C4F1F086
:101390000501A98F00D012000501806B4B0E816FF3
:1013A000826B836B846B856B080E866F0001E56B27
:1013B0001A0EE66E010EE66E67EC01F0E552E5529C
:1013C0001E0EE66E020EE66E67EC01F0E552E55287
:1013D000400EE66E400EE66E050EE66EE66A020E02
:1013E000E66E9EEC01F00B6E050EE15E0B50F3CF46
:1013F000EDF0F4CFEEF00001EF6BF06BE66B120056
:10140000D9CFE6FFE1CFD9FFFD0EDBCF06F0FE0E10
:10141000DBCF07F0050E061801E1075002E0000ED1
:1014200031D0FB0EDBCF0BF0FC0EDBCF0CF000015C
:10143000ED510B1802E1EE510C1813E1400EE66E6F
:10144000400EE66E050EE66EE66A020EE66E9EEC55
:1014500001F00B6E050EE15E0B50F3CFEDF0F4CF13
:10146000EEF0FB0EDBCF0BF0FC0EDBCF0CF000013F
:10147000EF510B1802E1F0510C1802E1E66BEB6B37
:10148000010E00D0E552E7CFD9FF1200D9CFE6FF19
:10149000E1CFD9FF0001E56BED51EE1102E1000E45
:1014A00008D0EDC0E9FFEEC0EAFFEF50800B01E08D
:1014B000010E000945E1FC0EDBCF0BF0EDC0E9FFAA
:1014C000EEC0EAFFEE52EF50D8800B5408E2EDC0B8
:1014D000E9FFEEC0EAFFEE52FC0EEFCFDBFFE56B5B
:1014E000FC0EDB50E55D19E2E551EA6A400FE96E5A
:1014F000050EEA22EF50E66EE551E76EFD0EDBCFFA
:10150000E9FFFE0EDBCFEAFFE750E926000EEA22F4
:10151000E552E750EF6EE52BE3D7400EE66E400E46
:10152000E66E050EE66EE66A020EE66E9EEC01F0D1
:101530000B6E050EE15E0B50F3CFEDF0F4CFEEF045
:101540000001E55100D0E552E7CFD9FF1200D9CF15
:10155000E6FFE1CFD9FF0001E6510CE1FD0EDBCF44
:10156000E7F0FE0EDBCFE8F0FC0EDBCFEBF0010E78
:10157000EC6FE66FE552E7CFD9FF1200D9CFE6FF57
:10158000E1CFD9FF030EE1260001E65101E02ED0A4
:10159000DF6AFD0EDBCF06F0FE0EDBCF07F0DE527A
:1015A00006C0DEFF07C0DDFFDD52DF2ADF500B6E15
:1015B0000C6AFF0E0B1801E10C5001E10BD0010E7B
:1015C000DBCFE9FFDB2A020EDBCFEAFF01E3DB2AF8
:1015D000EF50EBE1FD0EDBCFE7F0FE0EDBCFE8F0E6
:1015E000DFCFEBF00001010EEC6FE66F030EE15C64
:1015F00002E2E16AE552E16EE552E7CFD9FF12005F
:10160000D9CFE6FFE1CFD9FF030EE1260001E65175
:1016100001E02FD0DF6AFD0EDBCF06F0FE0EDBCF40
:1016200007F0DE5206C0DEFF07C0DDFFDD52DF2A15
:10163000DF500B6E0C6AFF0E0B1801E10C5001E13C
:101640000CD0010EDBCFF6FFDB2A020EDBCFF7FF5B
:1016500001E3DB2A0800F550EAE1FD0EDBCFE7F0FD
:10166000FE0EDBCFE8F0DFCFEBF00001EC6B010EFC
:10167000E66F030EE15C02E2E16AE552E16EE552DB
:10168000E7CFD9FF1200D9CFE6FFE1CFD9FF020E95
:10169000E1260001EF51F01102E1000E08D0EFC089
:1016A000E9FFF0C0EAFFEF50800B01E0010E0009F6
:1016B00001E085D0030EE65D01E1E66BE65101E154
:1016C0007ED0020EE65D16E1E66A000EE66EE66A80
:1016D000010EE66E020EE66E9EEC01F00B6E050E3C
:1016E000E15E0B50F3CFEFF0F4CFF0F00001030E0A
:1016F000E66F65D0E60563E1400E0B6E0C6AEB51B8
:101700000B5C000E0C5803E2400EDF6E02D0EBC003
:10171000DFFFDF50EB5DEB6F000EE96F050EEA6F48
:10172000010EDFCFDBFFEC5117E1010EDB5013E0C0
:10173000E7C0F6FFE8C0F7FF0800F550E9C0E9FF91
:10174000EAC0EAFFEF6EE92B000EEA23E72BE8235D
:10175000010EDB06EAD715D0010EDB5012E0E7C020
:10176000E9FFE8C0EAFFEF50E9C0E9FFEAC0EAFF9D
:10177000EF6EE92B000EEA23E72BE823010EDB06D0
:10178000EBD7EB5108E1400EDF5C03E1020EE66FA0
:1017900002D0030EE66FDFCFE6FF000EE66E050E09
:1017A000E66E010EE66E020EE66E9EEC01F00B6E2A
:1017B000050EE15E0B50F3CFEFF0F4CFF0F0020E28
:1017C000E15C02E2E16AE552E16EE552E7CFD9FF62
:0217D000120005
:0E17D20005D896EC00F012D8FCD712000F0ECE
:1017E000C11202D80AEF00F00001E26BE16B010EBA
:1017F000E06FC30E89169216938093821200D9CFA0
:10180000E6FFE1CFD9FF020EE1268DD8200E0501BB
:10181000E76E9119E8AE02D0E73402D0E750915D4F
:1018200003E36D50020B01E074D00001E15111E0BF
:10183000E0510EE10001E6510BE1A40EE66E1C0E34
:10184000E66E00EC0BF0E552E5520001010EE06F90
:1018500001D0E06B0001E6515AE1400EE66EA00EA9
:10186000E66E000EE66E46EC0AF0E552E552E552F1
:10187000DF6EDF504CE0010EDB6ADF50F36E010ECD
:10188000DBCFF4FFF350F45C37E2010EDB50EA6A81
:10189000A00FE96E000EEA22EF500A0A16E0070ACE
:1018A00014E0010EDB50EA6AA00FE96E000EEA2296
:1018B000EF28E66E010EDB50EA6A600FE96E000E5B
:1018C000EA22E552E750EF6E14D0010EDB50EA6ACF
:1018D000A00FE96E000EEA22EF50E66E010EDB501B
:1018E000EA6A600FE96E000EEA22E552E750EF6EF9
:1018F00000D0010EDB2AC1D7DFCFE6FF600EE66E17
:10190000000EE66EA7EC0AF0E552E552E55243EC14
:101910000BF0020EE15C02E2E16AE552E16EE55293
:10192000E7CFD9FF12000001FE51FF1104E1100EB4
:10193000FE6F270EFF6FFE07000EFF5B6DA20AD041
:10194000FE51FF1106E1897489A402D0898601D075
:1019500089962ED00501915103E18994899628D06A
:10196000910503E18984898623D0020E915D03E10C
:10197000898489961DD0040E915D03E1899489863E
:1019800017D0100E915D07E10001FE51FF1102E139
:10199000897489960DD0200E915D0AE10001FE51F7
:1019A000FF1106E1897489A402D0899601D0898645
:1019B0001200120012008150010B0001E15D0BE1E9
:1019C000E25102E0E20706D08150010B010AE16F0B
:1019D000640EE26F03D0E25101E0E2071200120050
:1019E0007BEF09F01200CCEF09F00501B5051EE10F
:1019F0000501B6051BE1DEDF6D920501B66B000146
:101A0000100EE36F0E0EE46FE307000EE45BE3518C
:101A1000E411FAE16D84080EE36F070EE46FE3074B
:101A2000000EE45BE351E411FAE16D941200D9CFAA
:101A3000E6FFE1CFD9FFFD0EDBCF06F0FE0EDBCFD8
:101A400007F0050E061801E1075039E0E8680618AE
:101A500002E17F0E071831E0030E061801E107507E
:101A60002AE0020E061801E1075023E0010E0618D5
:101A700001E107501CE0740E061801E1075015E063
:101A8000750E061801E107500EE0730E061801E10D
:101A9000075007E0720E061801E1075001E010D070
:101AA0000FD089DF0DD085DF0BD084DF09D09BDF1D
:101AB00007D098DF05D094DF03D091DF01D000D0AC
:0C1AC000010E00D0E552E7CFD9FF120064
:041ACC001201000201
:101AD00002000008D8040A00000101020001090206
:101AE0004300020100C032090400000102020100AB
:101AF0000524001001042402020524060001052427
:101B00000100010705810308000209040100020A1F
:101B100000000007050202400000070582024000A5
:101B2000000403090434034D006900630072006F70
:101B300000630068006900700020005400650063C5
:101B40000068006E006F006C006F00670079002075
:101B50000049006E0063002E00340343004400433C
:101B6000002000520053002D0032003300320020CC
:101B70000045006D0075006C006100740069006F25
:101B8000006E002000440065006D006F00DE1A2129
:051B90001B251B591B81
:0A1B9600060EF66E000EF76E000E4C
:101BA000F86E05010900F550CB6F0900F550CC6FB8
:101BB00003E1CB6701D03DD00900F550C66F0900A5
:101BC000F550C76F0900F550C86F09000900F550BE
:101BD000E96E0900F550EA6E090009000900F550A8
:101BE000C96F0900F550CA6F09000900F6CFCDF59D
:101BF000F7CFCEF5F8CFCFF5C6C5F6FFC7C5F7FFCF
:101C0000C8C5F8FF0501C95302E1CA5307E009003E
:101C1000F550EE6EC907F8E2CA07F9D7CDC5F6FF51
:101C2000CEC5F7FFCFC5F8FF0501CB07000ECC5B93
:041C3000BFD7120008
:0C1C3400FE0EE3CFE9FFFF0EE3CFEAFF56
:101C4000E9CFF3FFEACFF4FFFB0EE35003E1FC0E14
:101C5000E35009E0FB0EE30602E2FC0EE306FD0E94
:081C6000E350EE6EF1D7120013
:081C6800000EF36E00EE00F027
:101C7000080E01D81200EA6002D0EE6AFCD7F350D9
:081C8000E9601200EE6AFCD7D6
:081C880013EE00F023EE00F062
:101C9000F86A0A9CCBEC0DF05FEC0EF0E9EC0BF06F
:041CA000FBD712005C
:0C1CA400427574746F6E2050726573738B
:091CB0006564202D2D200D0A00B1
:041CB9000001FFFF28
:021CBE00120012
:021CC000000022
:020000040030CA
:0100000023DC
:010001000EF0
:010002003FBE
:010003001EDE
:010005008179
:010006008178
:010008000FE8
:01000900C036
:01000A000FE6
:01000B00E014
:01000C000FE4
:01000D0040B2
:00000001FF
